{
  "contractName": "Election",
  "abi": [
    {
      "inputs": [
        {
          "internalType": "string[]",
          "name": "_nda",
          "type": "string[]"
        },
        {
          "internalType": "string[]",
          "name": "_candidates",
          "type": "string[]"
        }
      ],
      "payable": false,
      "stateMutability": "nonpayable",
      "type": "constructor"
    },
    {
      "constant": true,
      "inputs": [
        {
          "internalType": "uint256",
          "name": "",
          "type": "uint256"
        }
      ],
      "name": "candidates",
      "outputs": [
        {
          "internalType": "uint256",
          "name": "id",
          "type": "uint256"
        },
        {
          "internalType": "string",
          "name": "name",
          "type": "string"
        },
        {
          "internalType": "uint256",
          "name": "voteCount",
          "type": "uint256"
        }
      ],
      "payable": false,
      "stateMutability": "view",
      "type": "function"
    },
    {
      "constant": true,
      "inputs": [],
      "name": "candidatesCount",
      "outputs": [
        {
          "internalType": "uint256",
          "name": "",
          "type": "uint256"
        }
      ],
      "payable": false,
      "stateMutability": "view",
      "type": "function"
    },
    {
      "constant": true,
      "inputs": [],
      "name": "description",
      "outputs": [
        {
          "internalType": "string",
          "name": "",
          "type": "string"
        }
      ],
      "payable": false,
      "stateMutability": "view",
      "type": "function"
    },
    {
      "constant": true,
      "inputs": [],
      "name": "name",
      "outputs": [
        {
          "internalType": "string",
          "name": "",
          "type": "string"
        }
      ],
      "payable": false,
      "stateMutability": "view",
      "type": "function"
    },
    {
      "constant": true,
      "inputs": [
        {
          "internalType": "address",
          "name": "",
          "type": "address"
        }
      ],
      "name": "voters",
      "outputs": [
        {
          "internalType": "bool",
          "name": "",
          "type": "bool"
        }
      ],
      "payable": false,
      "stateMutability": "view",
      "type": "function"
    },
    {
      "constant": false,
      "inputs": [
        {
          "internalType": "uint256",
          "name": "_candidate",
          "type": "uint256"
        }
      ],
      "name": "vote",
      "outputs": [],
      "payable": false,
      "stateMutability": "nonpayable",
      "type": "function"
    }
  ],
  "bytecode": "0x608060405260006004553480156200001657600080fd5b5060405162000d9438038062000d9483398181016040526200003c9190810190620003b8565b600081511162000083576040517f08c379a00000000000000000000000000000000000000000000000000000000081526004016200007a9062000493565b60405180910390fd5b816000815181106200009157fe5b602002602001015160009080519060200190620000b0929190620001a9565b5081600181518110620000bf57fe5b602002602001015160019080519060200190620000de929190620001a9565b5060008090505b81518110156200012257620001148282815181106200010057fe5b60200260200101516200012b60201b60201c565b8080600101915050620000e5565b50505062000580565b6040518060600160405280600454815260200182815260200160008152506002600060045481526020019081526020016000206000820151816000015560208201518160010190805190602001906200018692919062000230565b506040820151816002015590505060046000815480929190600101919050555050565b828054600181600116156101000203166002900490600052602060002090601f016020900481019282601f10620001ec57805160ff19168380011785556200021d565b828001600101855582156200021d579182015b828111156200021c578251825591602001919060010190620001ff565b5b5090506200022c9190620002b7565b5090565b828054600181600116156101000203166002900490600052602060002090601f016020900481019282601f106200027357805160ff1916838001178555620002a4565b82800160010185558215620002a4579182015b82811115620002a357825182559160200191906001019062000286565b5b509050620002b39190620002b7565b5090565b620002dc91905b80821115620002d8576000816000905550600101620002be565b5090565b90565b600082601f830112620002f157600080fd5b8151620003086200030282620004e3565b620004b5565b9150818183526020840193506020810190508360005b838110156200035257815186016200033788826200035c565b8452602084019350602083019250506001810190506200031e565b5050505092915050565b600082601f8301126200036e57600080fd5b8151620003856200037f826200050c565b620004b5565b91508082526020830160208301858383011115620003a257600080fd5b620003af8382846200054a565b50505092915050565b60008060408385031215620003cc57600080fd5b600083015167ffffffffffffffff811115620003e757600080fd5b620003f585828601620002df565b925050602083015167ffffffffffffffff8111156200041357600080fd5b6200042185828601620002df565b9150509250929050565b60006200043a60248362000539565b91507f54686572652073686f756c642062652061746c6561737420312063616e64696460008301527f6174652e000000000000000000000000000000000000000000000000000000006020830152604082019050919050565b60006020820190508181036000830152620004ae816200042b565b9050919050565b6000604051905081810181811067ffffffffffffffff82111715620004d957600080fd5b8060405250919050565b600067ffffffffffffffff821115620004fb57600080fd5b602082029050602081019050919050565b600067ffffffffffffffff8211156200052457600080fd5b601f19601f8301169050602081019050919050565b600082825260208201905092915050565b60005b838110156200056a5780820151818401526020810190506200054d565b838111156200057a576000848401525b50505050565b61080480620005906000396000f3fe608060405234801561001057600080fd5b50600436106100625760003560e01c80630121b93f1461006757806306fdde03146100835780632d35a8a2146100a15780633477ee2e146100bf5780637284e416146100f1578063a3ec138d1461010f575b600080fd5b610081600480360361007c9190810190610515565b61013f565b005b61008b61029e565b6040516100989190610630565b60405180910390f35b6100a961033c565b6040516100b69190610692565b60405180910390f35b6100d960048036036100d49190810190610515565b610342565b6040516100e8939291906106ad565b60405180910390f35b6100f9610404565b6040516101069190610630565b60405180910390f35b610129600480360361012491908101906104ec565b6104a2565b6040516101369190610615565b60405180910390f35b600360003373ffffffffffffffffffffffffffffffffffffffff1673ffffffffffffffffffffffffffffffffffffffff16815260200190815260200160002060009054906101000a900460ff16156101cc576040517f08c379a00000000000000000000000000000000000000000000000000000000081526004016101c390610672565b60405180910390fd5b600454811080156101de575060008110155b61021d576040517f08c379a000000000000000000000000000000000000000000000000000000000815260040161021490610652565b60405180910390fd5b6001600360003373ffffffffffffffffffffffffffffffffffffffff1673ffffffffffffffffffffffffffffffffffffffff16815260200190815260200160002060006101000a81548160ff021916908315150217905550600260008281526020019081526020016000206002016000815480929190600101919050555050565b60008054600181600116156101000203166002900480601f0160208091040260200160405190810160405280929190818152602001828054600181600116156101000203166002900480156103345780601f1061030957610100808354040283529160200191610334565b820191906000526020600020905b81548152906001019060200180831161031757829003601f168201915b505050505081565b60045481565b6002602052806000526040600020600091509050806000015490806001018054600181600116156101000203166002900480601f0160208091040260200160405190810160405280929190818152602001828054600181600116156101000203166002900480156103f45780601f106103c9576101008083540402835291602001916103f4565b820191906000526020600020905b8154815290600101906020018083116103d757829003601f168201915b5050505050908060020154905083565b60018054600181600116156101000203166002900480601f01602080910402602001604051908101604052809291908181526020018280546001816001161561010002031660029004801561049a5780601f1061046f5761010080835404028352916020019161049a565b820191906000526020600020905b81548152906001019060200180831161047d57829003601f168201915b505050505081565b60036020528060005260406000206000915054906101000a900460ff1681565b6000813590506104d181610793565b92915050565b6000813590506104e6816107aa565b92915050565b6000602082840312156104fe57600080fd5b600061050c848285016104c2565b91505092915050565b60006020828403121561052757600080fd5b6000610535848285016104d7565b91505092915050565b61054781610719565b82525050565b6000610558826106eb565b61056281856106f6565b935061057281856020860161074f565b61057b81610782565b840191505092915050565b6000610593601a836106f6565b91507f496e76616c69642063616e64696461746520746f20566f7465210000000000006000830152602082019050919050565b60006105d36018836106f6565b91507f566f7465722068617320616c726561647920566f7465642100000000000000006000830152602082019050919050565b61060f81610745565b82525050565b600060208201905061062a600083018461053e565b92915050565b6000602082019050818103600083015261064a818461054d565b905092915050565b6000602082019050818103600083015261066b81610586565b9050919050565b6000602082019050818103600083015261068b816105c6565b9050919050565b60006020820190506106a76000830184610606565b92915050565b60006060820190506106c26000830186610606565b81810360208301526106d4818561054d565b90506106e36040830184610606565b949350505050565b600081519050919050565b600082825260208201905092915050565b600061071282610725565b9050919050565b60008115159050919050565b600073ffffffffffffffffffffffffffffffffffffffff82169050919050565b6000819050919050565b60005b8381101561076d578082015181840152602081019050610752565b8381111561077c576000848401525b50505050565b6000601f19601f8301169050919050565b61079c81610707565b81146107a757600080fd5b50565b6107b381610745565b81146107be57600080fd5b5056fea365627a7a72315820185cfdcdddb7ec4f133aab7dcb7e9109d62f51a4c392a146eb21b0f3043d72d86c6578706572696d656e74616cf564736f6c63430005100040",
  "source": "pragma solidity >=0.4.21 <0.6.0;\npragma experimental ABIEncoderV2;\n\ncontract Election {\n  //Election details will be stored in these variables\n  string public name;\n  string public description;\n\n  //Structure of candidate standing in the election\n  struct Candidate {\n    uint id;\n    string name;\n    uint voteCount;\n  }\n\n  //Storing candidates in a map\n  mapping(uint => Candidate) public candidates;\n\n  //Storing address of those voters who already voted\n  mapping(address => bool) public voters;\n\n  //Number of candidates in standing in the election\n  uint public candidatesCount = 0;\n\n  //Setting of variables and data, during the creation of election contract\n  constructor (string[] memory _nda, string[] memory _candidates) public {\n    require(_candidates.length > 0, \"There should be atleast 1 candidate.\");\n    name = _nda[0];\n    description = _nda[1];\n    for(uint i = 0; i < _candidates.length; i++) {\n      addCandidate(_candidates[i]);\n    }\n  }\n\n  //Private function to add a candidate\n  function addCandidate (string memory _name) private {\n    candidates[candidatesCount] = Candidate(candidatesCount, _name, 0);\n    candidatesCount ++;\n  }\n\n  //Public vote function for voting a candidate\n  function vote (uint _candidate) public {\n    require(!voters[msg.sender], \"Voter has already Voted!\");\n    require(_candidate < candidatesCount && _candidate >= 0, \"Invalid candidate to Vote!\");\n    voters[msg.sender] = true;\n    candidates[_candidate].voteCount++;\n  }\n}\n",
  "sourcePath": "/home/pedromachado/hardhat/voting/contracts/Election.sol",
  "compiler": {
    "name": "solc",
    "version": "0.5.16+commit.9c3226ce.Emscripten.clang"
  },
  "schemaVersion": "3.4.8",
  "updatedAt": "2022-08-09T11:33:59.197Z",
  "networkType": "ethereum",
  "devdoc": {
    "methods": {}
  },
  "userdoc": {
    "methods": {}
  }
}